{
  "_format": "hh-sol-artifact-1",
  "contractName": "ChainPe",
  "sourceName": "contracts/Main.sol",
  "abi": [
    {
      "anonymous": false,
      "inputs": [
        {
          "indexed": true,
          "internalType": "address",
          "name": "previousOwner",
          "type": "address"
        },
        {
          "indexed": true,
          "internalType": "address",
          "name": "newOwner",
          "type": "address"
        }
      ],
      "name": "OwnershipTransferred",
      "type": "event"
    },
    {
      "anonymous": false,
      "inputs": [
        {
          "indexed": false,
          "internalType": "string",
          "name": "name",
          "type": "string"
        },
        {
          "indexed": false,
          "internalType": "string",
          "name": "vpa",
          "type": "string"
        },
        {
          "indexed": false,
          "internalType": "uint256",
          "name": "amount",
          "type": "uint256"
        },
        {
          "indexed": false,
          "internalType": "uint256",
          "name": "rate",
          "type": "uint256"
        }
      ],
      "name": "PaymentCompleted",
      "type": "event"
    },
    {
      "inputs": [],
      "name": "owner",
      "outputs": [
        {
          "internalType": "address",
          "name": "",
          "type": "address"
        }
      ],
      "stateMutability": "view",
      "type": "function"
    },
    {
      "inputs": [
        {
          "internalType": "string",
          "name": "vpa",
          "type": "string"
        },
        {
          "internalType": "string",
          "name": "name",
          "type": "string"
        },
        {
          "internalType": "uint256",
          "name": "amount",
          "type": "uint256"
        },
        {
          "internalType": "uint256",
          "name": "rate",
          "type": "uint256"
        }
      ],
      "name": "pay",
      "outputs": [],
      "stateMutability": "payable",
      "type": "function"
    },
    {
      "inputs": [],
      "name": "renounceOwnership",
      "outputs": [],
      "stateMutability": "nonpayable",
      "type": "function"
    },
    {
      "inputs": [
        {
          "internalType": "address",
          "name": "newOwner",
          "type": "address"
        }
      ],
      "name": "transferOwnership",
      "outputs": [],
      "stateMutability": "nonpayable",
      "type": "function"
    }
  ],
  "bytecode": "0x608060405234801561001057600080fd5b5061002d61002261003260201b60201c565b61003a60201b60201c565b6100fe565b600033905090565b60008060009054906101000a900473ffffffffffffffffffffffffffffffffffffffff169050816000806101000a81548173ffffffffffffffffffffffffffffffffffffffff021916908373ffffffffffffffffffffffffffffffffffffffff1602179055508173ffffffffffffffffffffffffffffffffffffffff168173ffffffffffffffffffffffffffffffffffffffff167f8be0079c531659141344cd1fd0a4f28419497f9722a3daafe3b4186f6b6457e060405160405180910390a35050565b6108bc8061010d6000396000f3fe60806040526004361061003f5760003560e01c8063715018a6146100445780638da5cb5b1461005b578063daf388f214610086578063f2fde38b146100a2575b600080fd5b34801561005057600080fd5b506100596100cb565b005b34801561006757600080fd5b506100706100df565b60405161007d9190610372565b60405180910390f35b6100a0600480360381019061009b919061051d565b610108565b005b3480156100ae57600080fd5b506100c960048036038101906100c491906105e8565b610163565b005b6100d36101e7565b6100dd6000610265565b565b60008060009054906101000a900473ffffffffffffffffffffffffffffffffffffffff16905090565b8181346101159190610644565b101561012057600080fd5b7f308d466281e822f63167f8676e7410fb6b12154c6409e2a1073549a658020069838584846040516101559493929190610735565b60405180910390a150505050565b61016b6101e7565b600073ffffffffffffffffffffffffffffffffffffffff168173ffffffffffffffffffffffffffffffffffffffff1614156101db576040517f08c379a00000000000000000000000000000000000000000000000000000000081526004016101d2906107fa565b60405180910390fd5b6101e481610265565b50565b6101ef610329565b73ffffffffffffffffffffffffffffffffffffffff1661020d6100df565b73ffffffffffffffffffffffffffffffffffffffff1614610263576040517f08c379a000000000000000000000000000000000000000000000000000000000815260040161025a90610866565b60405180910390fd5b565b60008060009054906101000a900473ffffffffffffffffffffffffffffffffffffffff169050816000806101000a81548173ffffffffffffffffffffffffffffffffffffffff021916908373ffffffffffffffffffffffffffffffffffffffff1602179055508173ffffffffffffffffffffffffffffffffffffffff168173ffffffffffffffffffffffffffffffffffffffff167f8be0079c531659141344cd1fd0a4f28419497f9722a3daafe3b4186f6b6457e060405160405180910390a35050565b600033905090565b600073ffffffffffffffffffffffffffffffffffffffff82169050919050565b600061035c82610331565b9050919050565b61036c81610351565b82525050565b60006020820190506103876000830184610363565b92915050565b6000604051905090565b600080fd5b600080fd5b600080fd5b600080fd5b6000601f19601f8301169050919050565b7f4e487b7100000000000000000000000000000000000000000000000000000000600052604160045260246000fd5b6103f4826103ab565b810181811067ffffffffffffffff82111715610413576104126103bc565b5b80604052505050565b600061042661038d565b905061043282826103eb565b919050565b600067ffffffffffffffff821115610452576104516103bc565b5b61045b826103ab565b9050602081019050919050565b82818337600083830152505050565b600061048a61048584610437565b61041c565b9050828152602081018484840111156104a6576104a56103a6565b5b6104b1848285610468565b509392505050565b600082601f8301126104ce576104cd6103a1565b5b81356104de848260208601610477565b91505092915050565b6000819050919050565b6104fa816104e7565b811461050557600080fd5b50565b600081359050610517816104f1565b92915050565b6000806000806080858703121561053757610536610397565b5b600085013567ffffffffffffffff8111156105555761055461039c565b5b610561878288016104b9565b945050602085013567ffffffffffffffff8111156105825761058161039c565b5b61058e878288016104b9565b935050604061059f87828801610508565b92505060606105b087828801610508565b91505092959194509250565b6105c581610351565b81146105d057600080fd5b50565b6000813590506105e2816105bc565b92915050565b6000602082840312156105fe576105fd610397565b5b600061060c848285016105d3565b91505092915050565b7f4e487b7100000000000000000000000000000000000000000000000000000000600052601160045260246000fd5b600061064f826104e7565b915061065a836104e7565b9250817fffffffffffffffffffffffffffffffffffffffffffffffffffffffffffffffff048311821515161561069357610692610615565b5b828202905092915050565b600081519050919050565b600082825260208201905092915050565b60005b838110156106d85780820151818401526020810190506106bd565b838111156106e7576000848401525b50505050565b60006106f88261069e565b61070281856106a9565b93506107128185602086016106ba565b61071b816103ab565b840191505092915050565b61072f816104e7565b82525050565b6000608082019050818103600083015261074f81876106ed565b9050818103602083015261076381866106ed565b90506107726040830185610726565b61077f6060830184610726565b95945050505050565b7f4f776e61626c653a206e6577206f776e657220697320746865207a65726f206160008201527f6464726573730000000000000000000000000000000000000000000000000000602082015250565b60006107e46026836106a9565b91506107ef82610788565b604082019050919050565b60006020820190508181036000830152610813816107d7565b9050919050565b7f4f776e61626c653a2063616c6c6572206973206e6f7420746865206f776e6572600082015250565b60006108506020836106a9565b915061085b8261081a565b602082019050919050565b6000602082019050818103600083015261087f81610843565b905091905056fea2646970667358221220bf330fed3c892bb0f2433d16e65ef0b9835f315554b66ae9ecfff49b5246e4f564736f6c63430008090033",
  "linkReferences": {},
  "deployedLinkReferences": {}
}